{
  "contractName": "Betting",
  "abi": [
    {
      "constant": true,
      "inputs": [
        {
          "name": "",
          "type": "uint256"
        },
        {
          "name": "",
          "type": "uint256"
        }
      ],
      "name": "numberToPlayers",
      "outputs": [
        {
          "name": "",
          "type": "address"
        }
      ],
      "payable": false,
      "stateMutability": "view",
      "type": "function",
      "signature": "0x029b42a0"
    },
    {
      "constant": true,
      "inputs": [],
      "name": "numberOfBets",
      "outputs": [
        {
          "name": "",
          "type": "uint256"
        }
      ],
      "payable": false,
      "stateMutability": "view",
      "type": "function",
      "signature": "0x2ca8c6d3"
    },
    {
      "constant": true,
      "inputs": [],
      "name": "totalSlots",
      "outputs": [
        {
          "name": "",
          "type": "uint256"
        }
      ],
      "payable": false,
      "stateMutability": "view",
      "type": "function",
      "signature": "0x32651906"
    },
    {
      "constant": true,
      "inputs": [],
      "name": "owner",
      "outputs": [
        {
          "name": "",
          "type": "address"
        }
      ],
      "payable": false,
      "stateMutability": "view",
      "type": "function",
      "signature": "0x8da5cb5b"
    },
    {
      "constant": true,
      "inputs": [
        {
          "name": "",
          "type": "address"
        }
      ],
      "name": "playerToNumber",
      "outputs": [
        {
          "name": "",
          "type": "uint256"
        }
      ],
      "payable": false,
      "stateMutability": "view",
      "type": "function",
      "signature": "0x8ec508a7"
    },
    {
      "constant": true,
      "inputs": [],
      "name": "betValue",
      "outputs": [
        {
          "name": "",
          "type": "uint256"
        }
      ],
      "payable": false,
      "stateMutability": "view",
      "type": "function",
      "signature": "0xaf3fac40"
    },
    {
      "constant": true,
      "inputs": [],
      "name": "lastWinnerNumber",
      "outputs": [
        {
          "name": "",
          "type": "uint256"
        }
      ],
      "payable": false,
      "stateMutability": "view",
      "type": "function",
      "signature": "0xce2d4b46"
    },
    {
      "constant": true,
      "inputs": [
        {
          "name": "",
          "type": "uint256"
        }
      ],
      "name": "players",
      "outputs": [
        {
          "name": "",
          "type": "address"
        }
      ],
      "payable": false,
      "stateMutability": "view",
      "type": "function",
      "signature": "0xf71d96cb"
    },
    {
      "constant": true,
      "inputs": [],
      "name": "totalBet",
      "outputs": [
        {
          "name": "",
          "type": "uint256"
        }
      ],
      "payable": false,
      "stateMutability": "view",
      "type": "function",
      "signature": "0xfe5e1853"
    },
    {
      "inputs": [],
      "payable": false,
      "stateMutability": "nonpayable",
      "type": "constructor",
      "signature": "constructor"
    },
    {
      "constant": false,
      "inputs": [
        {
          "name": "betNumber",
          "type": "uint256"
        }
      ],
      "name": "bet",
      "outputs": [],
      "payable": true,
      "stateMutability": "payable",
      "type": "function",
      "signature": "0x7365870b"
    },
    {
      "constant": false,
      "inputs": [],
      "name": "kill",
      "outputs": [],
      "payable": false,
      "stateMutability": "nonpayable",
      "type": "function",
      "signature": "0x41c0e1b5"
    }
  ],
  "bytecode": "0x6080604052670de0b6b3a7640000600255600460055534801561002157600080fd5b50336000806101000a81548173ffffffffffffffffffffffffffffffffffffffff021916908373ffffffffffffffffffffffffffffffffffffffff160217905550610a67806100716000396000f3006080604052600436106100af576000357c0100000000000000000000000000000000000000000000000000000000900463ffffffff168063029b42a0146100b45780632ca8c6d31461012b578063326519061461015657806341c0e1b5146101815780637365870b146101985780638da5cb5b146101b85780638ec508a71461020f578063af3fac4014610266578063ce2d4b4614610291578063f71d96cb146102bc578063fe5e185314610329575b600080fd5b3480156100c057600080fd5b506100e96004803603810190808035906020019092919080359060200190929190505050610354565b604051808273ffffffffffffffffffffffffffffffffffffffff1673ffffffffffffffffffffffffffffffffffffffff16815260200191505060405180910390f35b34801561013757600080fd5b506101406103a1565b6040518082815260200191505060405180910390f35b34801561016257600080fd5b5061016b6103a7565b6040518082815260200191505060405180910390f35b34801561018d57600080fd5b506101966103ad565b005b6101b660048036038101908080359060200190929190505050610442565b005b3480156101c457600080fd5b506101cd6106a8565b604051808273ffffffffffffffffffffffffffffffffffffffff1673ffffffffffffffffffffffffffffffffffffffff16815260200191505060405180910390f35b34801561021b57600080fd5b50610250600480360381019080803573ffffffffffffffffffffffffffffffffffffffff1690602001909291905050506106cd565b6040518082815260200191505060405180910390f35b34801561027257600080fd5b5061027b6106e5565b6040518082815260200191505060405180910390f35b34801561029d57600080fd5b506102a66106eb565b6040518082815260200191505060405180910390f35b3480156102c857600080fd5b506102e7600480360381019080803590602001909291905050506106f1565b604051808273ffffffffffffffffffffffffffffffffffffffff1673ffffffffffffffffffffffffffffffffffffffff16815260200191505060405180910390f35b34801561033557600080fd5b5061033e61072f565b6040518082815260200191505060405180910390f35b60076020528160005260406000208181548110151561036f57fe5b906000526020600020016000915091509054906101000a900473ffffffffffffffffffffffffffffffffffffffff1681565b60045481565b60055481565b6000809054906101000a900473ffffffffffffffffffffffffffffffffffffffff1673ffffffffffffffffffffffffffffffffffffffff163373ffffffffffffffffffffffffffffffffffffffff1614151561040857600080fd5b6000809054906101000a900473ffffffffffffffffffffffffffffffffffffffff1673ffffffffffffffffffffffffffffffffffffffff16ff5b806000600860003373ffffffffffffffffffffffffffffffffffffffff1673ffffffffffffffffffffffffffffffffffffffff1681526020019081526020016000205414151561049157600080fd5b60025434101515156104a257600080fd5b600a6004541015156104b357600080fd5b600181101580156104c55750600a8111155b15156104d057600080fd5b343373ffffffffffffffffffffffffffffffffffffffff1631101515156104f657600080fd5b60025434111561054c573373ffffffffffffffffffffffffffffffffffffffff166108fc60025434039081150290604051600060405180830381858888f1935050505015801561054a573d6000803e3d6000fd5b505b81600860003373ffffffffffffffffffffffffffffffffffffffff1673ffffffffffffffffffffffffffffffffffffffff1681526020019081526020016000208190555060063390806001815401808255809150509060018203906000526020600020016000909192909190916101000a81548173ffffffffffffffffffffffffffffffffffffffff021916908373ffffffffffffffffffffffffffffffffffffffff16021790555050600760008381526020019081526020016000203390806001815401808255809150509060018203906000526020600020016000909192909190916101000a81548173ffffffffffffffffffffffffffffffffffffffff021916908373ffffffffffffffffffffffffffffffffffffffff160217905550506001600460008282540192505081905550346003600082825401925050819055506005546004541015156106a4576106a3610735565b5b5050565b6000809054906101000a900473ffffffffffffffffffffffffffffffffffffffff1681565b60086020528060005260406000206000915090505481565b60025481565b60015481565b60068181548110151561070057fe5b906000526020600020016000915054906101000a900473ffffffffffffffffffffffffffffffffffffffff1681565b60035481565b600060606000806107446108d2565b9350600760008581526020019081526020016000208054806020026020016040519081016040528092919081815260200182805480156107d957602002820191906000526020600020905b8160009054906101000a900473ffffffffffffffffffffffffffffffffffffffff1673ffffffffffffffffffffffffffffffffffffffff168152602001906001019080831161078f575b505050505092506000835111156108bd5782516003548115156107f857fe5b049150600090505b60076000858152602001908152602001600020805490508110156108bc57600760008581526020019081526020016000208181548110151561083e57fe5b9060005260206000200160009054906101000a900473ffffffffffffffffffffffffffffffffffffffff1673ffffffffffffffffffffffffffffffffffffffff166108fc839081150290604051600060405180830381858888f193505050501580156108ae573d6000803e3d6000fd5b508080600101915050610800565b5b836001819055506108cc6108e9565b50505050565b60006001600a438115156108e257fe5b0601905090565b600080600191505b600a82111515610929576000600760008481526020019081526020016000208161091b91906109ea565b5081806001019250506108f1565b600090505b6006805490508110156109c65760006008600060068481548110151561095057fe5b9060005260206000200160009054906101000a900473ffffffffffffffffffffffffffffffffffffffff1673ffffffffffffffffffffffffffffffffffffffff1673ffffffffffffffffffffffffffffffffffffffff16815260200190815260200160002081905550808060010191505061092e565b60006006816109d591906109ea565b50600060038190555060006004819055505050565b815481835581811115610a1157818360005260206000209182019101610a109190610a16565b5b505050565b610a3891905b80821115610a34576000816000905550600101610a1c565b5090565b905600a165627a7a723058200544b7bfd789a19115c7c225136da8ebfc2e68c92c7f507ac5bf8c32cae10d0b0029",
  "source": "pragma solidity ^0.4.23;\n\ncontract Betting {\n    address public owner;\n    uint public lastWinnerNumber;\n    uint public betValue = 1 ether;\n    uint public totalBet;\n    uint public numberOfBets;\n    uint public totalSlots = 4;\n    address[] public players;\n\n    mapping(uint => address[]) public numberToPlayers;\n    mapping(address => uint) public playerToNumber;\n\n    constructor () public {\n        owner = msg.sender;\n    }\n\n    modifier validBet(uint betNumber) {\n        require(playerToNumber[msg.sender] == 0);\n        require(msg.value >= betValue);\n        require(numberOfBets < 10);\n        require(betNumber >= 1 && betNumber <= 10);\n        _;\n    }\n\n    function bet(uint betNumber) public payable validBet(betNumber) {\n        require(msg.sender.balance >= msg.value);\n        if (msg.value > betValue) {\n            msg.sender.transfer(msg.value - betValue);\n        }\n        playerToNumber[msg.sender] = betNumber;\n        players.push(msg.sender);\n        numberToPlayers[betNumber].push(msg.sender);\n        numberOfBets += 1;\n        totalBet += msg.value;\n        if(numberOfBets >= totalSlots) {\n            distributePrizes();\n        }\n    }\n\n    function distributePrizes() internal {\n        uint winnerNumber = generateRandomNumber();\n        address[] memory winners = numberToPlayers[winnerNumber];\n        if (winners.length > 0) {\n            uint winnerEtherAmount = totalBet / winners.length;\n            for (uint i = 0; i < numberToPlayers[winnerNumber].length; i++) {\n                numberToPlayers[winnerNumber][i].transfer(winnerEtherAmount);\n            }\n        }\n        lastWinnerNumber = winnerNumber;\n        reset();\n    }\n\n    function generateRandomNumber() internal view returns (uint) {\n        return (block.number % 10 + 1);\n    }\n\n    function reset() internal {\n        for (uint i = 1; i <= 10; i++) {\n            numberToPlayers[i].length = 0;\n        }\n\n        for (uint j = 0; j < players.length; j++) {\n            playerToNumber[players[j]] = 0;\n        }\n\n        players.length = 0;\n        totalBet = 0;\n        numberOfBets = 0;\n    }\n\n    function kill() public {\n        require(msg.sender == owner);\n        selfdestruct(owner);\n    }\n}",
  "sourcePath": "/home/dien/Desktop/Intern_Sun/ETHBetting/contracts/Betting.sol",
  "compiler": {
    "name": "solc",
    "version": "0.4.23+commit.124ca40d.Emscripten.clang"
  },
  "schemaVersion": "3.0.3",
  "updatedAt": "2019-04-03T02:04:43.273Z",
  "devdoc": {
    "methods": {}
  },
  "userdoc": {
    "methods": {}
  }
}